:1000000000308A00892800001030B400F701FA019E
:10001000B10CB00C031C12283208F7070318FA0AB7
:100020003308FA07FA0CF70CF90CF80CB40B082893
:100030008A110A12D728F801F901F701FA013508E7
:10004000031D2528340803193F281030B60003107B
:10005000B20DB30DF70DFA0D35087A02031D3228E3
:1000600034087702031C3B283408F702031CFA0308
:100070003508FA020314F80DF90DB60B27288A117A
:100080000A12E4283108F801300203184A2830081F
:10009000F7005628F7010830B200B00DF70D31080F
:1000A00077020318F700F80DB20B4D280800323024
:1000B00084008313000803196B280130F800F7014E
:1000C000F70B6028F80B5F284A30F700F70B66281B
:1000D0006928800B5D2808008801203031078400E2
:1000E00083130008B2008600803088000130B2001F
:1000F0005720880120303007840083130008B200A5
:100100008600403088000130B20057208A110A1260
:10011000FE28840183131F30830583161F149F1448
:100120001F159F1107309C003F308312A00006303E
:10013000A1005B30A2004F30A3006630A4006D30F8
:10014000A5007D30A6000730A7007F30A8006F30E3
:10015000A90083161F109F141F159F151F138312CC
:100160001F179F1383169F1383121F140030F8006C
:100170001F08C73978049F000630F700F70BBE2828
:100180000000003083168800860083128601AD01CE
:10019000AE011F151F19CA281E08AB01AA002B08A3
:1001A000B1002A08B000B3016330B2000428790816
:1001B000B1007808B0007908B3007808B2000330C5
:1001C000B500FF30B4001B287808AC002C08B00044
:1001D0000A30B10042207808AD002C08B0000A3087
:1001E000B10042207708AE00AF012F08633C031C2A
:1001F00000292E08B0002D08B1006C28AF0AF528A0
:08020000AD01AE01C928630045
:02400E00713F00
:00000001FF
;PIC16F877A
;CRC=CC49  CREATED="02-ene.-26 18:03"
