:1000000001308A00B42900000A108A100A11820700
:1000100028340C34013406340C003317AD206D3114
:10002000EF3900010C0031172D28F234ED32F23790
:1000300000010C003217AD29E5337537E4370001B4
:100040000C00253084008313000803193528013083
:10005000F800F701F70B2A28F80B29284A30F70097
:10006000F70B30283328800B272808002C183A2853
:1000700006123B280616831606128312AC18422875
:100080008612432886168316861283122C194A2854
:1000900006134B280617831606138312AC19522831
:1000A00086135328861783168613000083120614BE
:1000B000831606105B28831206108316061083121F
:1000C0000800AD018316061600308312061A0130AF
:1000D000AD048316861600308312861A0130F700AD
:1000E0000310F70D7708AD0483160617003083124E
:1000F000061B0130F700F70DF70DFC30F705770808
:10010000AD048316861700308312861B0130F7007A
:10011000F70DF70DF70DF830F7057708AD042D084A
:10012000F800080083160610861006118312861048
:10013000831686100616861606178617831206156E
:1001400083160611000083120614831606100000A1
:10015000831261207808AC00061083160610000098
:10016000831206148316061000008312612078089B
:10017000AB000610831606100612861206138613AD
:1001800083122C0EF700F030F70577082B04F800E7
:100190007808AB00AB1FCE2883169A28A908031D48
:1001A000D3288610D4288614831686100000831264
:1001B000061183160611000083120610831606101E
:1001C00083122A0EAB000F30AB052B08AC00362093
:1001D0002A080F39AB00AC0036200800831606123F
:1001E00086120613861306108610061183128610D7
:1001F00083168610831206118316061183120610C9
:10020000831606100F308312A50021200130A100B3
:100210002108033C031C16290330AC003620AC0136
:1002200036200530A5002120A10A08290230AC00A3
:100230003620AC0136200530A5002120A10121087F
:10024000033C031C2C2921080420A200A901220838
:10025000AA009220A10A1F298A110A12C429260B7A
:10026000322935294030A7003629A701013025025F
:10027000A70727088038A800A9012808AA0092200B
:1002800008002408073A03194F290B3A0319542987
:10029000063A03195C29023A0319622967290130D9
:1002A000A500A6002F216D29A9010130AA009220E6
:1002B0000230A50021206D290130A5000230A600E2
:1002C0002F216D29A9011030AA0092206D2901303B
:1002D000A9002408AA0092206D290800831603179C
:1002E0008C170C140000000083120C087F390319CE
:1002F000B2290313A10003170D080313A20003176B
:100300000F080313A3002108A400412122080317AA
:100310008D000313230803178F0083168C170C140A
:100320000000000083120C0D0E0D7F390319B22955
:100330000313A10003170D080313A20003170F08EE
:100340000313A3002108A4004121220803178D00F4
:100350000313230803178F008D0A03198F0A031351
:100360006E29031703130800840183131F308305CC
:1003700083161F149F141F159F1107309C000C300B
:10038000880083128801EE286430A5002120881D92
:10039000E329081DE3296430A50021200C30031750
:1003A0008D0000308F0003136E210130A500A600E0
:1003B0002F210D3003178D0000308F0003136E21A5
:1003C000033088001F2A881DFD296430A5002120E4
:1003D000123003178D0000308F0003136E2101309F
:1003E000A500A6002F21133003178D0000308F00C9
:1003F00003136E21013088001F2A081D172A64305C
:10040000A5002120193003178D0000308F00031341
:100410006E210130A500A6002F211A3003178D0090
:1004200000308F0003136E21023088001F2A203015
:1004300003178D0000308F0003136E218801C72938
:02044000630057
:02400E00713F00
:00000001FF
;PIC16F877A
;CRC=8C0F  CREATED="18-dic.-25 18:12"
