:1000000000308A0019280000223084008313000881
:10001000031918280130F800F701F70B0D28F80B29
:100020000C284A30F700F70B13281628800B0A28F3
:100030000800840183131F308305A00183161F1459
:100040009F141F159F1107309C00860183128601A3
:10005000831607158312071D2F280130A007200BD8
:100060003C280F3086000230A100FA30A2000420A4
:10007000A10B3528860157282008023C031D55286E
:100080000C3086000230A100FA30A2000420A10B3F
:100090004428033086000230A100FA30A200042078
:1000A000A10B4D280F30860057288601A0012B2870
:0200B0006300EB
:02400E00713F00
:00000001FF
;PIC16F877A
;CRC=E53B  CREATED="09-dic.-25 17:44"
