:1000000000308A004A28000033308400831300083F
:10001000031918280130F800F701F70B0D28F80B29
:100020000C284A30F700F70B13281628800B0A28F3
:100030000800F8308700203032078400831300085E
:10004000B30086000130B3000420F930870020306F
:100050003107840083130008B30086000130B30029
:100060000420FA3087002030300784008313000812
:10007000B30086000130B3000420FB30870020303D
:100080002F07840083130008B30086000130B300FB
:1000900004200800840183131F30830583161F1476
:1000A0009F141F159F1107309C007E308312A00003
:1000B0003030A1006D30A2007930A3003330A400AD
:1000C0005B30A5001F30A6007030A7007F30A8006D
:1000D0007B30A90002308316850000308600F8309E
:1000E0008700831286010130AA00AB01AC01AD018B
:1000F000AE01AB012B08093C031CB828AC012C084D
:10010000093C031CB628AD012D08093C031CB4288A
:10011000AE012E08093C031CB228851CA7283230EA
:10012000B3000420AA01AA08031DA728851C9D2846
:100130003230B30004200130AA002E08AF002D0891
:10014000B0002C08B1002B08B200192093282E080B
:10015000AF002D08B0002C08B1002B08B200192008
:10016000AE0A8928AD0A8428AC0A7F28AB0A7A280F
:0C017000AB01AC01AD01AE0179286300C9
:02400E00713F00
:00000001FF
;PIC16F877A
;CRC=E187  CREATED="13-dic.-25 16:51"
