:1000000001308A00812900000A108A100A11820733
:1000100028340C34013406342D3084008313000856
:10002000031920280130F800F701F70B1528F80B09
:1000300014284A30F700F70B1B281E28800B1228C3
:1000400008003418252808122628081683160812D6
:100050008312B4182D2888122E2888168316881229
:100060008312341935280813362808178316081305
:100070008312B4193D2888133E28881783168813E5
:1000800000008312081583160811462883120811F0
:100090008316081183120800B50183160816003074
:1000A0008312081A0130B5048316881600308312B3
:1000B000881A0130F7000310F70D7708B50483168E
:1000C000081700308312081B0130F700F70DF70DF9
:1000D000FC30F7057708B5048316881700308312C3
:1000E000881B0130F700F70DF70DF70DF830F70515
:1000F0007708B5043508F8000800831608110810C1
:10010000881083120810831608100816881608171E
:10011000881783128814831688100000831208152C
:1001200083160811000083124C207808B4000811CF
:1001300083160811000083120815831608110000A9
:1001400083124C207808B300081183160811081296
:100150008812081388138312340EF700F030F70565
:1001600077083304F8007808B300B31FB928831662
:100170008528B108031DBE280810BF28081483165F
:100180000810000083128810831688100000831264
:100190000811831608118312320EB3000F30B30515
:1001A0003308B400212032080F39B300B4002120F5
:1001B0000800831608128812081388130811081003
:1001C0008810831208108316081083128810831673
:1001D000881083120811831608110F308312AD00A6
:1001E0000C200130AC002C08033C031C0129033017
:1001F000B4002120B40121200530AD000C20AC0A50
:10020000F3280230B4002120B40121200530AD00D4
:100210000C20AC012C08033C031C17292C080420DB
:10022000AD00B1012D08B2007D20AC0A0A298A1167
:100230000A1290292C0DF700F70DF70DF830F7058D
:100240007708403EB000B1013008B2007D20AF0118
:100250002F08073C031C3B292F082D07840083131C
:100260002E1883170008B0000130B1003008B2002A
:100270007D20AF0A2829B1018030B2007D208A118B
:100280000A12A6292E0B452948294030AF004929DA
:10029000AF0101302D02AF072F088038B000B10147
:1002A0003008B2007D2008002C08073A03196229A3
:1002B0000B3A03196729063A03196F29023A031901
:1002C00075297A290130AD00AE0042218029B101A3
:1002D0000130B2007D200230AD000C2080290130B9
:1002E000AD000230AE0042218029B1011030B200D1
:1002F0007D2080290130B1002C08B2007D208029AA
:100300000800840183131F30830583161F149F1474
:100310001F159F1107309C00803086008312D9285A
:1003200021100130A200A3000E30A4001F30A50050
:100330001530A6001F30A700A800A9001530AA009C
:10034000AB01AC01AE012430AD001A290C30AC0079
:1003500054210230AD000C200130AD00AE0042212E
:10036000AC015421861FD9292118D929861BB62909
:100370003230AD000C202208AD002308AE0042212F
:100380002030AC005421A20A2208103C0318D129C5
:100390000130A200230BCF290230A300D129013064
:1003A000A3002208AD002308AE004221AC01542175
:0C03B0002114861BDC292110B2296300F7
:02400E00713F00
:00000001FF
;PIC16F877A
;CRC=DB11  CREATED="29-dic.-25 19:25"
