:1000000000308A001B28000023308400831300087E
:10001000031918280130F800F701F70B0D28F80B29
:100020000C284A30F700F70B13281628800B0A28F3
:100030008A110A124F28840183131F308305831607
:100040001F149F141F159F1107309C00003086005D
:100050000130870083128601A201A100071C3F28FE
:10006000A108031D3928A208031D3928A2018030E8
:10007000A100210886000310A20CA10C4C28A108A5
:10008000031D4728220B4728A2010130A1002108A7
:1000900086000310A10DA20DC830A30004282E284D
:0200A0006300FB
:02400E00713F00
:00000001FF
;PIC16F877A
;CRC=7DE9  CREATED="12-dic.-25 14:38"
