:1000000000308A001B2800002C3084008313000875
:10001000031918280130F800F701F70B0D28F80B29
:100020000C284A30F700F70B13281628800B0A28F3
:100030008A110A124A28840183131F30830583160C
:100040001F149F141F159F1107309C00003086005D
:1000500002308700831286017E30A1003030A2007A
:100060006D30A3007930A4003330A5005B30A600CA
:100070001F30A7007030A8007F30A9007B30AA0095
:10008000AB01871C54282B08093C031C5328C8309B
:10009000AC00042821302B07840083130008AC0037
:0C00A0008600AB0A5428AB014128630025
:02400E00713F00
:00000001FF
;PIC16F877A
;CRC=A7C4  CREATED="13-dic.-25 15:05"
