:1000000002308A000C2A00000A108A100A118207A6
:1000100028340C3401340634CD32EE3A20326510E7
:10002000CC22C413730020102010201020102010A8
:100030002010201020100001CC224410412D552604
:10004000000120102010201020102010201020105F
:1000500020100001CC224410D227D320C427000155
:100060002010201020102010201020102010201010
:100070000001CC22441042264127C327000028302B
:10008000840083130008031953280130F800F70196
:10009000F70B4828F80B47284A30F700F70B4E2893
:1000A0005128800B452808002F1858280812592875
:1000B0000816831608128312AF1860288812612868
:1000C00088168316881283122F1968280813692846
:1000D0000817831608138312AF1970288813712824
:1000E00088178316881300008312081583160811D9
:1000F0007928831208118316081183120800B001B1
:100100008316081600308312081A0130B0048316D3
:10011000881600308312881A0130F7000310F70D9B
:100120007708B0048316081700308312081B0130CB
:10013000F700F70DF70DFC30F7057708B0048316CC
:10014000881700308312881B0130F700F70DF70D78
:10015000F70DF830F7057708B0043008F80008000C
:1001600083160811081088108312081083160810CF
:1001700008168816081788178312881483168810A3
:1001800000008312081583160811000083127F20D7
:100190007808AF00081183160811000083120815B3
:1001A00083160811000083127F207808AE00081122
:1001B00083160811081288120813881383122F0E51
:1001C000F700F030F70577082E04F8007808AE0045
:1001D000AE1FEC288316B828AC08031DF1280810C0
:1001E000F228081483160810000083128810831662
:1001F00088100000831208118316081183122D0E37
:10020000AE000F30AE052E08AF0054202D080F3978
:10021000AE00AF005420080083160812881208139D
:10022000881308110810881083120810831608100C
:100230008312881083168810831208118316081100
:100240000F308312A8003F200130A4002408033C93
:10025000031C34290330AF005420AF015420053073
:10026000A8003F20A40A26290230AF005420AF0185
:1002700054200530A8003F20A4012408033C031C9F
:100280004A2924080420A500AC012508AD00B020AF
:10029000A40A3D298A110A121D2A290B5029532923
:1002A0004030AA005429AA0101302802AA072A08CE
:1002B0008038AB00AC012B08AD00B0200800270847
:1002C000073A03196D290B3A03197229063A0319E3
:1002D0007A29023A0319802985290130A800A9004A
:1002E0004D218B29AC010130AD00B0200230A800B7
:1002F0003F208B290130A8000230A9004D218B2915
:10030000AC011030AD00B0208B290130AC002708C3
:10031000AD00B0208B290800831603178C170C142E
:100320000000000083120C087F390319D029031341
:10033000A40003170D080313A50003170F080313E8
:10034000A6002408A7005F21250803178D000313CA
:10035000260803178F0083168C170C14000000006A
:1003600083120C0D0E0D7F390319D0290313A4003D
:1003700003170D080313A50003170F080313A600A6
:100380002408A7005F21250803178D000313260802
:1003900003178F008D0A03198F0A03138C29031783
:1003A00003130800A4012408023C031CE1290716DA
:1003B0001E30A8003F2007121430A8003F20A40AD6
:1003C000D3298A110A12382A07163230A8003F2092
:1003D00007121E30A8003F2007163230A8003F2029
:1003E00007128A110A12452A07163230A8003F2048
:1003F00007128A110A12B82A8712071387132408D2
:10040000203C031987162408403C031907172408C9
:10041000803C031987170800840183131F3083056C
:1004200083161F149F141F159F1107309C00603006
:1004300086000030870083120C29A101A201231439
:10044000A3100130A800A9004D210C3003178D0026
:1004500000308F0003138C21861F392A2208033CA9
:10046000031C392A861F322A3230A8003F20D229A5
:10047000A20A061F462A2208003C0318462A061F25
:100480003F2A3230A8003F20E429A203861E4A2AD0
:100490002310A3142208033C0318502A0130A200A1
:1004A000A208031D552A0330A200A1012208013A27
:1004B0000319612A033A03197C2A013A0319972A7E
:1004C000B22A0130A8000230A9004D2113300317D1
:1004D0008D0000308F0003138C210130A800023002
:1004E000A9004D211C3003178D0000308F0003132D
:1004F0008C210130A100B32A0130A8000230A900EC
:100500004D21213003178D0000308F0003138C2103
:100510000130A8000230A9004D212A3003178D00B8
:1005200000308F0003138C210230A100B32A013068
:10053000A8000230A9004D21303003178D00003093
:100540008F0003138C210130A8000230A9004D2137
:10055000393003178D0000308F0003138C210330D6
:10056000A100B32AB32A2318D12AA31CD12AF42923
:100570002108013A0319C32A033A0319C72A013A89
:100580000319CB2ACF2A2030A400FC21D02A4030E6
:10059000A400FC21D02A8030A400FC21D02AD02A3B
:0605A000A310212A6300F4
:02400E00713F00
:00000001FF
;PIC16F877A
;CRC=98E2  CREATED="27-dic.-25 16:53"
