:1000000002308A00502A00000A108A100A11820762
:1000100028340C34013406340A108A100A1182077D
:100020003134323433344134343435343634423478
:1000300037343834393443342A3430342334443474
:10004000D432633661103D100000263084008313E3
:100050000008031939280130F800F701F70B2E28A2
:10006000F80B2D284A30F700F70B34283728800B7F
:100070002B2808002D183E2808123F280816831642
:1000800008128312AD18462888124728881683164E
:10009000881283122D194E2808134F28081783162B
:1000A00008138312AD19562888135728881783160A
:1000B0008813000083120815831608115F28831225
:1000C00008118316081183120800AE018316081662
:1000D00000308312081A0130AE04831688160030EF
:1000E0008312881A0130F7000310F70D7708AE0469
:1000F0008316081700308312081B0130F700F70D34
:10010000F70DFC30F7057708AE048316881700302A
:100110008312881B0130F700F70DF70DF70DF8304B
:10012000F7057708AE042E08F800080083160811BA
:1001300008108810831208108316081008168816F5
:1001400008178817831288148316881000008312FA
:100150000815831608110000831265207808AD0089
:100160000811831608110000831208158316081160
:100170000000831265207808AC000811831608116E
:10018000081288120813881383122D0EF700F0301E
:10019000F70577082C04F8007808AC00AC1FD228CB
:1001A00083169E28AA08031DD7280810D8280814EB
:1001B0008316081000008312881083168810000030
:1001C000831208118316081183122B0EAC000F3016
:1001D000AC052C08AD003A202B080F39AC00AD005F
:1001E0003A20080083160812881208138813081191
:1001F00008108810831208108316081083128810C4
:100200008316881083120811831608110F30831289
:10021000A60025200130A2002208033C031C1A2955
:100220000330AD003A20AD013A200530A60025206C
:10023000A20A0C290230AD003A20AD013A20053067
:10024000A6002520A2012208033C031C3029220815
:100250000420A300AA012308AB009620A20A2329A8
:100260008A110A12622A270B362939294030A80040
:100270003A29A80101302602A80728088038A900D9
:10028000AA012908AB00962008002508073A03199F
:1002900053290B3A03195829063A03196029023ADF
:1002A000031966296B290130A600A70033217129A3
:1002B000AA010130AB0096200230A600252071294A
:1002C0000130A6000230A70033217129AA011030A5
:1002D000AB00962071290130AA002508AB009620BA
:1002E00071290800831603178C170C1400000000F6
:1002F00083120C087F390319B6290313A2000317D0
:100300000D080313A30003170F080313A40022080A
:10031000A5004521230803178D00031324080317A4
:100320008F0083168C170C140000000083120C0D34
:100330000E0D7F390319B6290313A20003170D0808
:100340000313A30003170F080313A4002208A5003A
:100350004521230803178D000313240803178F007A
:100360008D0A03198F0A03137229031703138A11C5
:100370000A126D2AA2012208033C031C212AA208AA
:10038000031DC4290E308600220BC8290D308600BB
:100390002208023C031DCE290B3086002208033CB4
:1003A000031DD429073086002130F700F70BD6292A
:1003B000061AE929061EDA293230A6002520220D68
:1003C000F700F70DFC30F70577080C20F800F8006F
:1003D000232A861AFB29861EEB293230A600252007
:1003E000220DF700F70DFC30F7057708013E0C20D1
:1003F000F800F800232A061B0D2A061FFD293230BB
:10040000A6002520220DF700F70DFC30F705770830
:10041000023E0C20F800F800232A861B1F2A861FA4
:100420000F2A3230A6002520220DF700F70DFC30F0
:10043000F7057708033E0C20F800F800232AA20AEB
:10044000BB290030F8008A110A126E2A07163230D2
:10045000A60025200712080007163230A600252026
:1004600007121E30A600252007163230A6002520D0
:1004700007120800A2012208023C031C492A0716A1
:100480001E30A600252007121430A6002520A20A3F
:100490003B2A08000716C830A600252007120800CE
:1004A000840183131F30830583161F149F141F15A7
:1004B0009F1107309C00F0308600003087008113C8
:1004C0008312F2280130A600A70033212030031741
:1004D0008D0000308F0003137229BA297808A1001B
:1004E000A1080319982A0930A6000130A70033217A
:1004F00023302102DE3E0318922A223E9A2A262227
:10050000922A2C22922A3A22922A4A22922A3A2289
:10051000922A4A222622922A2C223230A600252014
:100520002622922A2108A50045212030A500452138
:10053000622A63000A108A140A118207892A922A01
:10054000922A922A922A922A922A872A922A922AD6
:10055000922A922A922A852A7F2A7F2A7F2A812A12
:10056000812A812A832A832A832A922A922A922AFA
:10057000922A922A922A922A8C2A8C2A8C2A8C2AB3
:02400E00713F00
:00000001FF
;PIC16F877A
;CRC=0087  CREATED="19-dic.-25 19:12"
