:1000000000308A0019280000213084008313000882
:10001000031918280130F800F701F70B0D28F80B29
:100020000C284A30F700F70B13281628800B0A28F3
:100030000800840183131F30830583161F149F1447
:100040001F159F1107309C00870183128701013023
:1000500087006430A100042087016430A1000420DF
:10006000023087006430A100042087016430A100C1
:100070000420033087006430A1000420870164302D
:10008000A1000420033087006430A1000420870110
:0A0090006430A1000420272863005B
:02400E00713F00
:00000001FF
;PIC16F877A
;CRC=5435  CREATED="09-dic.-25 17:07"
