:1000000002308A00712A00000A108A100A11820741
:1000100028340C34013406340A108A100A1182077D
:100020003134323433344134343435343634423478
:1000300037343834393443342A3430342334443474
:10004000CD32EE3A20326510CC22A7390000CC2206
:100050004410412D55260001CC224410D227D32034
:10006000C4270001CC22441042264127C3270000A8
:10007000293084008313000803194C280130F8004C
:10008000F701F70B4128F80B40284A30F700F70B2F
:1000900047284A28800B3E280800301851280812AB
:1000A00052280816831608128312B018592888128D
:1000B0005A2888168316881283123019612808136B
:1000C00062280817831608138312B0196928881349
:1000D0006A28881783168813000083120815831670
:1000E0000811722883120811831608118312080060
:1000F000B1018316081600308312081A0130B104CA
:100100008316881600308312881A0130F700031016
:10011000F70D7708B1048316081700308312081B07
:100120000130F700F70DF70DFC30F7057708B10443
:100130008316881700308312881B0130F700F70DF3
:10014000F70DF70DF830F7057708B1043108F8001E
:1001500008008316081108108810831208108316EF
:100160000810081688160817881783128814831633
:1001700088100000831208158316081100008312EE
:1001800078207808B0000811831608110000831247
:100190000815831608110000831278207808AF0034
:1001A0000811831608110812881208138813831285
:1001B000300EF700F030F70577082F04F8007808C4
:1001C000AF00AF1FE5288316B128AD08031DEA284C
:1001D0000810EB28081483160810000083128810FA
:1001E00083168810000083120811831608118312E9
:1001F0002E0EAF000F30AF052F08B0004D202E0897
:100200000F39AF00B0004D20080083160812881285
:100210000813881308110810881083120810831619
:100220000810831288108316881083120811831611
:1002300008110F308312A90038200130A5002508CD
:10024000033C031C2D290330B0004D20B0014D208C
:100250000530A9003820A50A1F290230B0004D2022
:10026000B0014D200530A9003820A5012508033C28
:10027000031C432925080420A600AD012608AE0072
:10028000A920A50A36298A110A12832A2A0B49298C
:100290004C294030AB004D29AB0101302902AB079E
:1002A0002B088038AC00AD012C08AE00A920080056
:1002B0002808073A031966290B3A03196B29063AED
:1002C00003197329023A031979297E290130A900FB
:1002D000AA0046218429AD010130AE00A9200230D8
:1002E000A900382084290130A9000230AA00462143
:1002F0008429AD011030AE00A92084290130AD0061
:100300002808AE00A92084290800831603178C173B
:100310000C140000000083120C087F390319C9294E
:100320000313A50003170D080313A60003170F08F6
:100330000313A7002508A8005821260803178D00DD
:100340000313270803178F0083168C170C14000063
:10035000000083120C0D0E0D7F390319C9290313F8
:10036000A50003170D080313A60003170F080313B6
:10037000A7002508A8005821260803178D0003139D
:10038000270803178F008D0A03198F0A0313852985
:10039000031703130800A5012508033C031C322A98
:1003A000A508031DD5290E308600250BD9290D304F
:1003B00086002508023C031DDF290B308600250836
:1003C000033C031DE529073086002130F700F70BB9
:1003D000E729061AFA29061EEB293230A90038202F
:1003E000250DF700F70DFC30F70577080C20F80015
:1003F000F800342A861A0C2A861EFC293230A900FD
:100400003820250DF700F70DFC30F7057708013E81
:100410000C20F800F800342A061B1E2A061F0E2A9C
:100420003230A9003820250DF700F70DFC30F70514
:100430007708023E0C20F800F800342A861B302A88
:10044000861F202A3230A9003820250DF700F70D2D
:10045000FC30F7057708033E0C20F800F800342A3A
:10046000A50ACC290030F8008A110A12932AA501A6
:100470002508023C031C462A07161E30A900382016
:1004800007121430A9003820A50A382A8A110A1246
:10049000A12A07163230A900382007121E30A90001
:1004A000382007163230A900382007128A110A12A4
:1004B000AB2A07163230A900382007128A110A1217
:1004C000FF2A8712071387132508203C0319871674
:1004D0002508403C031907172508803C0319871796
:1004E0000800840183131F30830583161F149F1493
:1004F0001F159F1107309C00F030860000308700E8
:10050000811383120529A101A2012314A310013034
:10051000A900AA004621203003178D0000308F006B
:1005200003138521CB297808A400A4080319182BEC
:100530002408413C031DA22A2208033C031CA22AD2
:10054000372AA20A2408423C031DAC2A2208003C98
:100550000318AC2A492AA2032408233C031DB22A0B
:100560002310A3142208033C0318B82A0130A20068
:10057000A208031DBD2A0330A2000C30A800582198
:10058000A1012208013A0319CC2A033A0319DB2AF4
:10059000013A0319EA2AF92A0130A9000230AA0017
:1005A0004621273003178D0000308F00031385216B
:1005B0000130A100FA2A0130A9000230AA00462128
:1005C0002C3003178D0000308F000313852102307B
:1005D000A100FA2A0130A9000230AA0046213230D7
:1005E00003178D0000308F00031385210330A10015
:1005F000FA2AFA2A2318182BA31C182B592A210887
:10060000013A03190A2B033A03190E2B013A031975
:10061000122B162B2030A5006122172B4030A5008D
:100620006122172B8030A5006122172B172BA310F6
:04063000872A6300B2
:02400E00713F00
:00000001FF
;PIC16F877A
;CRC=FE71  CREATED="22-dic.-25 18:17"
